:040000000C94460016
:14008C00CFEFD0E1CDBFDEBFCE51D0400AEA08830024E0E036
:1400A000F1E011E0E030F10711F00192FBCF0083ECE8F0E0FD
:1400B400A0E0B1E010E000E00BBFEC38F10721F0C89531963C
:1400C8000D92F9CF0E947E00FFCF0E94D000442755270BC0AB
:1400DC006627772700006F5F7F4F6431E0E07E07CCF34F5F02
:1400F0005F4F4017510794F30C94D5008FEF84BB46C0442775
:140104000BC001E0142F0E94DA0025B2200E25BA04E610E0BE
:14011800DCDF4395483098F344270BC00FEF142F0E94DA004A
:14012C0025B2200E25BA04E610E0CDDF4395483098F344270F
:140140000FC0242F332700E810E00E94C90025B23324200E90
:14015400311E25BA04E610E0BADF4395483078F344270FC001
:14016800242F332700E81FEF0E94C90025B23324200E311ECA
:14017C0025BA04E610E0A7DF4395483078F3222425BAB9CFC8
:140190000895222321F0159507952A95FACF08957A936A93F3
:1401A4005A934A93089549915991699179910895112319F03E
:0801B800000F1A95FBCF08951A
:00000001FF
