:040000000C944A0012
:14008C0006070102603E7A69CFEFD0E1CDBFDEBFCE51D04008
:1400A0000AEA08830024E8E0F1E011E0E830F10711F001927B
:1400B400FBCF0083ECE8F0E0A0E0B1E010E000E00BBFE4397F
:1400C800F10721F0C89531960D92F9CF0E948200FFCF0E94FC
:1400DC00F300442755270BC06627772700006F5F7F4F6A3CFE
:1400F000E3E07E07CCF34F5F5F4F4017510794F30C94F800CB
:14010400289780E091E0FE0104E010E0FA93EA939A938A9330
:140118000E94FD0084E091E0FE01349604E010E0FA93EA93B8
:14012C009A938A930E94FD008FE884BB81E0809364008FEFCA
:140140008ABB4EC08FEF8BBB442747C0AA243FC0AA2099F4FE
:140154002B8025BA242E3324E3E0F0E0E219F309CE01049671
:14016800E80FF91F208020942BBA04EF11E0B1DF29C02A2C88
:14017C003324E3E0F0E0E219F309CE01E80FF91F208025BA31
:14019000242E3324E3E0F0E0E219F309CE010496E80FF91FB0
:1401A400208020942BBA2A2C3324E3E0F0E0E219F309CE0108
:1401B8000196E80FF91F208025BA8FEF8BBB04EF11E087DF00
:1401CC00A39484E0841BA81608F4BCCF4395443008F4B6CFD3
:1401E000B1CF289608957A936A935A934A93089549915991FB
:1401F400699179910895AA93BA93EA93FA930A92AF81B885B9
:14020800ED81FE810030010729F001900D9201501040F8CF0C
:0E021C000990F991E991B991A991249608955C
:00000001FF
