:040000000C944B0011
:14008C0077603E7A695B5F707F7BCFEFD0E1CDBFDEBFCE518D
:1400A000D0400AEA08830024EAE0F1E011E0EA30F10711F0FA
:1400B4000192FBCF0083ECE8F0E0A0E0B1E010E000E00BBF09
:1400C800E639F10721F0C89531960D92F9CF0E948300FFCF7E
:1400DC000E943701442755270BC06627772700006F5F7F4FBD
:1400F0006A3CE3E07E07CCF34F5F5F4F4017510794F30C941D
:140104003C012A97AA2444276627CC2480E091E0FE010AE079
:1401180010E0FA93EA939A938A930E9441018FEF84BB8ABBA9
:14012C0081E08093640086E085BB87E085BB81E085BB82E097
:1401400085BB8FEF8BBB56C08A2D8B3308F449C04395AA2471
:140154004B3330F163954427673118F0C394662744C087E0A6
:1401680085BB2AE030E0062F11270E94FD00CE01F801E80F5E
:14017C00F91F208020942BBA86E085BB2AE030E0062F1127F1
:140190000E940101CE01F801E80FF91F208020942BBA25C0C2
:1401A40082E085BB2AE030E0042F11270E94FD00CE01F801B9
:1401B800E80FF91F208020942BBA81E085BB2AE030E0042FFD
:1401CC0011270E940101CE01F801E80FF91F208020942BBA33
:1401E00006C0A39484E085BB2A2C20942BBA0AE010E074DF4E
:1401F400A9CF2A9608956894DA92D12E04C0E894DA92D12E10
:14020800D32617FF04C0109500950F5F1F4F37FF04C030953A
:14021C0020952F5F3F4F0E941E01D7FE04C0109500950F5FFB
:140230001F4FD9900895689401C0E894EA92FA928A93EE24D6
:14024400FF2480E1000F111FEE1CFF1CE216F30618F0E21AC9
:14025800F30A03958A95A1F716F40E2D1F2D8991F990E99099
:14026C0008957A936A935A934A9308954991599169917991A8
:140280000895AA93BA93EA93FA930A92AF81B885ED81FE8143
:140294000030010729F001900D9201501040F8CF0990F9914A
:0A02A800E991B991A99124960895F7
:00000001FF
