:040000000C94460016
:14008C00CFEFD0E1CDBFDEBFCE51D0400AEA08830024E0E036
:1400A000F1E011E0E030F10711F00192FBCF0083ECE8F0E0FD
:1400B400A0E0B1E010E000E00BBFEC38F10721F0C89531963C
:1400C8000D92F9CF0E947E00FFCF0E949900442755270BC0E2
:1400DC006627772700006F5F7F4F6A3CE3E07E07CCF34F5FEE
:1400F0005F4F4017510794F30C949E008FEF84BB16C04427DC
:1401040007C0842F8F5F85BB02E310E0E0DF43954436B8F3AE
:14011800442707C084E6841B85BB02E310E0D5DF439544367D
:14012C00B8F3E9CF08957A936A935A934A930895499159918A
:0601400069917991089518
:00000001FF
