:040000000C942A0032
:14005400CFE5D4E0CDBFDEBFCE51D0400AEA08830024E0E66F
:14006800F0E010E0E337F10711F00192FBCF0083E4E5F0E038
:14007C00A0E6B0E010E000E00BBFE435F10721F0C89531967A
:140090000D92F9CF0E946800FFCF0E94B000442755270BC019
:1400A4006627772700006F5F7F4F6A3CE3E07E07CCF34F5F26
:1400B8005F4F4017510794F30C94B50005BB190120943094A9
:1400CC002BBA08958FE38093630086E0809364008BE5809356
:1400E00065008FE48093660086E6809367008DE680936800E7
:1400F4008DE78093690087E080936A008FE780936B008FE6BB
:1401080080936C0087E780936D008CE780936E0089E3809303
:14011C006F008EE58093700089E78093710081E78093720089
:140130008FEF84BB13C029B220926100209420926100822DC7
:140144008F708093610083E690E0E0916100FF27E80FF91F54
:14015800208025BAECCF08957A936A935A934A930895499171
:08016C00599169917991089500
:00000001FF
