:040000000C94540008
:14008C000000000077603E7A695B5F707F7B7D4F176E1F1DB7
:1400A0000000000006070102CFEFD0E1CDBFDEBFCE51D04075
:1400B4000AEA08830024ECE1F1E011E0EC31F10711F001925D
:1400C800FBCF0083ECE8F0E0A0E0B1E010E000E00BBFE83A66
:1400DC00F10721F0C89531960D92F9CF0E949200FFCF0E94D8
:1400F000DE00442755270BC06627772700006F5F7F4F6A3CFF
:14010400E3E07E07CCF34F5F5F4F4017510794F30C94E300CB
:1401180005BB1901209430942BBA08956C97AA2480E091E05D
:14012C00FE0108E110E0FA93EA939A938A930E94E80088E1A0
:1401400091E0FE01789604E010E0FA93EA939A938A930E9463
:14015400E80087E884BB8FEF8ABB81E080936400222420926E
:1401680065002BBA25BA85E085BB21C044271DC0662715C02A
:14017C00CE014896E62FFF27E80FF91F208025BA262E33244E
:14019000E42FFF27E20DF31DCE01E80FF91F208020942BBA0C
:1401A4006395643048F308EC10E09FDF4395443108F3DECF29
:1401B8006C9608957A936A935A934A93089549915991699165
:1401CC0079910895AA93BA93EA93FA930A92AF81B885ED816D
:1401E000FE810030010729F001900D9201501040F8CF09900A
:0C01F400F991E991B991A9912496089520
:00000001FF
