:040000000C944C0010
:14008C001707775B773D1F4C06070102CFEFD0E1CDBFDEBFA9
:1400A000CE51D0400AEA08830024ECE0F1E011E0EC30F107D8
:1400B40011F00192FBCF0083ECE8F0E0A0E0B1E010E000E0D2
:1400C8000BBFE839F10721F0C89531960D92F9CF0E94C30040
:1400DC00FFCF0E948401442755270BC06627772700006F5F70
:1400F0007F4F6A3CE3E07E07CCF34F5F5F4F4017510794F3EF
:140104000C948901AA92CA92CA80AA240EC0EA2DFF27E20F11
:14011800F31F208025BAEA2DFF27E00FF11F208020942BBACD
:14012C00A394AC1480F3C990A9900895002722242ABA80E86D
:1401400082BB29B322BA8FEF8ABB81E0809364002092650004
:1401540024FD01C001E025FD01C002E026FD01C003E027FD24
:1401680001C004E020FD01C005E021FD01C006E022FD01C076
:14017C0007E023FD01C008E008952D976627442780E091E095
:14019000FE01359604E010E0FA93EA939A938A930E948E0138
:1401A40084E091E0FE01399604E010E0FA93EA939A938A937C
:1401B8000E948E0188E091E0FE01319604E010E0FA93EA9385
:1401CC009A938A930E948E018FEF8ABB87E084BB22242BBA10
:1401E00025BA85E085BB81E08093640080E881BB88C0A2DF42
:1401F400602F442329F584E085BB81E08BBB84E088839E018A
:140208002F5F3F4F8E010B5F1F4F7ADF613059F441E084E0A3
:14021C0088839E012F5F3F4F8E010B5F1F4F6EDF67C04427C2
:1402300084E088839E012F5F3F4F8E010B5F1F4F63DF5CC0CB
:140244004130C1F4623059F442E084E088839E012F5F3F4F55
:140258008E010B5F1F4F54DF4DC0442784E088839E012F5FE4
:14026C003F4F8E010B5F1F4F49DF42C04230C1F4633059F458
:1402800043E084E088839E012F5F3F4F8E010B5F1F4F3ADF9D
:1402940033C0442784E088839E012F5F3F4F8E010B5F1F4F67
:1402A8002FDF28C04330C1F4643059F444E084E088839E0111
:1402BC002F5F3F4F8E010B5F1F4F20DF19C0442784E08883F9
:1402D0009E012F5F3F4F8E010B5F1F4F15DF0EC0443061F46D
:1402E40084E085BB22242BBA88839E012F5F3F4F8E01075F7C
:1402F8001F4F06DF08E813E1EEDE77CF2D9608957A936A933F
:14030C005A934A93089549915991699179910895AA93BA9387
:14032000EA93FA930A92AF81B885ED81FE810030010729F078
:1403340001900D9201501040F8CF0990F991E991B991A991FC
:04034800249608955A
:00000001FF
