:040000000C944E000E
:14008C00773D1F6D060701021707775B06070102CFEFD0E1A1
:1400A000CDBFDEBFCE51D0400AEA08830024E0E1F1E011E0CE
:1400B400E031F10711F00192FBCF0083ECE8F0E0A0E0B1E099
:1400C80010E000E00BBFEC39F10721F0C89531960D92F9CFD1
:1400DC000E941401FFCF0E944901442755270BC066277727C2
:1400F00000006F5F7F4F6A3CE3E07E07CCF34F5F5F4F401700
:14010400510794F30C944E014A93289780E091E0FE0104E0C9
:1401180010E0FA93EA939A938A930E94530184E091E0FE01C5
:14012C00349604E010E0FA93EA939A938A930E9453018FEF59
:140140008ABB442711C0CE010496E42FFF27E80FF91F2080D9
:1401540025BACE01E42FFF27E80FF91F208020942BBA439590
:14016800443068F32896499108954A93289788E091E0FE010B
:14017C0004E010E0FA93EA939A938A930E9453018CE091E074
:14019000FE01349604E010E0FA93EA939A938A930E94530174
:1401A4008FEF8ABB442711C0CE010496E42FFF27E80FF91F97
:1401B800208025BACE01E42FFF27E80FF91F208020942BBA64
:1401CC004395443068F32896499108950027222425BA2ABA13
:1401E00080E882BB29B322BA2F3E11F401E01BC02F3D11F40F
:1401F40002E017C02F3B11F403E013C02F3711F404E00FC0FB
:14020800273F11F405E00BC02B3F11F406E007C02D3F11F43A
:14021C0007E003C02E3F09F408E008954427662787E884BB8F
:1402300081E08093640080E881BB9BDF28C0CCDF602F662319
:14024400E1F3442329F4633019F441E090DF1BC0413029F4B5
:14025800633019F442E089DF14C0423029F4623019F443E043
:14026C0082DF0DC0433059F4613049F449DF442700EA1FE046
:1402800030DF77DF02C0A8DF602F6623E1F7D9CF08957A937A
:140294006A935A934A93089549915991699179910895AA9350
:1402A800BA93EA93FA930A92AF81B885ED81FE8100300107BD
:1402BC0029F001900D9201501040F8CF0990F991E991B99196
:0602D000A9912496089597
:00000001FF
