:040000000C942A0032
:14005400CFE5D4E0CDBFDEBFCE51D0400AEA08830024E0E66F
:14006800F0E010E0E036F10711F00192FBCF0083E4E5F0E03C
:14007C00A0E6B0E010E000E00BBFE435F10721F0C89531967A
:140090000D92F9CF0E946200FFCF0E947100442755270BC05E
:1400A4006627772700006F5F7F4F6436E0E07E07CCF34F5F35
:1400B8005F4F4017510794F30C94760081E884BB0AC081E067
:1400CC0085BB0AE010E0E3DF80E885BB0AE010E0DEDFF5CF41
:1400E00008957A936A935A934A930895499159916991799136
:0200F40008956D
:00000001FF
