:040000000C944B0011
:14008C0077603E7A695B5F707F7BCFEFD0E1CDBFDEBFCE518D
:1400A000D0400AEA08830024EAE0F1E011E0EA30F10711F0FA
:1400B4000192FBCF0083ECE8F0E0A0E0B1E010E000E00BBF09
:1400C800E639F10721F0C89531960D92F9CF0E948300FFCF7E
:1400DC000E943301442755270BC06627772700006F5F7F4FC1
:1400F0006A3CE3E07E07CCF34F5F5F4F4017510794F30C941D
:1401040038012A9780E091E0FE010AE010E0FA93EA939A930C
:140118008A930E943D0187E884BB8FEF8ABB81E0809364008D
:14012C002224209265002BBA25BA85E085BB58C044275527FA
:1401400086E085BB23E930E08A010E94FD00CE01F801E80F00
:14015400F91F208020942BBA87E085BB23E930E08A010E9456
:14016800F90024E630E00E94FD00CE01F801E80FF91F20805A
:14017C0020942BBA81E085BB23E930E08A010E94F90024E6E9
:1401900030E00E94F9002AE030E00E94FD00CE01F801E80F38
:1401A400F91F208020942BBA82E085BB23E930E08A010E940B
:1401B800F90024E630E00E94F9002AE030E00E94F900CE0101
:1401CC00F801E80FF91F208020942BBA02E310E07FDF4F5FFD
:1401E0005F4F4E3BE5E05E070CF4AACFA7CF2A960895689462
:1401F400DA92D12E04C0E894DA92D12ED32617FF04C0109569
:1402080000950F5F1F4F37FF04C0309520952F5F3F4F0E943F
:14021C001A01D7FE04C0109500950F5F1F4FD9900895689402
:1402300001C0E894EA92FA928A93EE24FF2480E1000F111F83
:14024400EE1CFF1CE216F30618F0E21AF30A03958A95A1F740
:1402580016F40E2D1F2D8991F990E99008957A936A935A9351
:14026C004A93089549915991699179910895AA93BA93EA9398
:14028000FA930A92AF81B885ED81FE810030010729F0019005
:140294000D9201501040F8CF0990F991E991B991A991249674
:0202A8000895B7
:00000001FF
