:040000000C944A0012
:14008C0006070102603E7A69CFEFD0E1CDBFDEBFCE51D04008
:1400A0000AEA08830024E8E0F1E011E0E830F10711F001927B
:1400B400FBCF0083ECE8F0E0A0E0B1E010E000E00BBFE4397F
:1400C800F10721F0C89531960D92F9CF0E948200FFCF0E94FC
:1400DC00E900442755270BC06627772700006F5F7F4F6A3C08
:1400F000E3E07E07CCF34F5F5F4F4017510794F30C94EE00D5
:14010400289780E091E0FE0104E010E0FA93EA939A938A9330
:140118000E94F30084E091E0FE01349604E010E0FA93EA93C2
:14012C009A938A930E94F3008FE884BB81E0809364008FEFD4
:140140008ABB44C08FEF8BBB82E085BB81E085BB87E085BBB4
:1401540086E085BB442735C063E02FC0633079F42B8025BAD5
:14016800CE010496E42FFF27E80FF91F208020942BBA04EFA6
:14017C0011E0ADDF1DC0CE01E62FFF27E80FF91F208025BA7D
:14019000CE010496E42FFF27E80FF91F208020942BBACE01A2
:1401A4000197E62FFF27E80FF91F208025BA8FEF8BBB04EF2F
:1401B80011E08FDF6A95641708F0CECF4395443008F4C8CFE6
:1401CC00BBCF289608957A936A935A934A9308954991599105
:1401E000699179910895AA93BA93EA93FA930A92AF81B885CD
:1401F400ED81FE810030010729F001900D9201501040F8CF21
:0E0208000990F991E991B991A9912496089570
:00000001FF
