:040000000C944C0010
:0B008C00051A600600070001000200DA
:14009800CFEFD0E1CDBFDEBFCE51D0400AEA08830024EBE01F
:1400AC00F1E011E0EB30F10711F00192FBCF0083ECE8F0E0E6
:1400C000A0E0B1E010E000E00BBFE739F10721F0C895319634
:1400D4000D92F9CF0E949200FFCF0E941C01442755270BC03E
:1400E8006627772700006F5F7F4F6A3CE3E07E07CCF34F5FE2
:1400FC005F4F4017510794F30C9421010E94170159016801CD
:14011000C5BA1501209430942BBA04E610E0DFDF0C940C01A4
:140124002B9780E091E0FE0103E010E0FA93EA939A938A930E
:140138000E94260183E091E0FE01339608E010E0FA93EA936C
:14014C009A938A930E94260187E884BB8FEF8ABB81E08093A7
:1401600064002224209265002BBA25BA85E085BB81E085BBC0
:140174008FEF8BBB81E085BB82E085BB87E085BB86E085BB23
:1401880044C04427552766277727CE01FB01E80FF91F2081D2
:14019C003327CE010396FA01EE0FFF1FE80FF91F0081118155
:1401B000ABDF6F5F7F4F6330E0E07E0754F38FEF8BBB4F5F84
:1401C4005F4F4430E0E05E0704F343E050E062E070E0CE0135
:1401D800FB01E80FF91F20813327CE010396FA01EE0FFF1F8F
:1401EC00E80FF91F0081118189DF615070406030E0E07E073F
:1402000054F78FEF8BBB415050404030E0E05E0704F7BBCFA0
:140214002B960895A990B990C990D99008957A936A935A93A0
:140228004A93FA92EA92DA92CA92BA92AA9208957A936A93E6
:14023C005A934A93089549915991699179910895AA93BA9358
:14025000EA93FA930A92AF81B885ED81FE810030010729F049
:1402640001900D9201501040F8CF0990F991E991B991A991CD
:04027800249608952B
:00000001FF
