:0200000010C02E
:14002200CFE5D2E0CDBFDEBFCE51D0400AEA08830024E0E6A3
:14003600F0E010E0E036F10711F00192FBCF0083E2E2F0E073
:14004A00A0E6B0E010E000E00BBFE232F10721F0C8953196B1
:14005E000D92F9CF14D0FFCF1CD0442755270BC066277727AC
:1400720000006F5F7F4F6A3CE3E07E07CCF34F5F5F4F40177E
:14008600510794F30FC08FEF84BB05C081E085BB04E610E0BB
:14009A00E5DFFACF08957A936A935A934A93089549915991F3
:0600AE00699179910895AB
:00000001FF
