:040000000C94460016
:14008C00CFEFD0E1CDBFDEBFCE51D0400AEA08830024E0E036
:1400A000F1E011E0E030F10711F00192FBCF0083ECE8F0E0FD
:1400B400A0E0B1E010E000E00BBFEC38F10721F0C89531963C
:1400C8000D92F9CF0E947E00FFCF0E949000442755270BC0EB
:1400DC006627772700006F5F7F4F6A3CE3E07E07CCF34F5FEE
:1400F0005F4F4017510794F30C9495008FEF84BB0DC04427EE
:1401040009C001E0142F0E949A0005BB04E610E0DEDF43958F
:140118004830A8F3F2CF08957A936A935A934A930895499117
:14012C005991699179910895112319F0000F1A95FBCF0895D2
:00000001FF
