:040000000C944B0011
:14008C0077603E7A695B5F707F7BCFEFD0E1CDBFDEBFCE518D
:1400A000D0400AEA08830024EAE0F1E011E0EA30F10711F0FA
:1400B4000192FBCF0083ECE8F0E0A0E0B1E010E000E00BBF09
:1400C800E639F10721F0C89531960D92F9CF0E94AA00FFCF57
:1400DC000E946901442755270BC06627772700006F5F7F4F8B
:1400F0006A3CE3E07E07CCF34F5F5F4F4017510794F30C941D
:140104006E01002722242ABA80E882BB29B322BA8FEF8ABB07
:1401180081E0809364002092650024FD01C001E025FD01C03E
:14012C000FEF26FD01C0002727FD01C001E020FD01C001E031
:1401400021FD01C001E022FD01C001E023FD01C001E00895CB
:140154002A9780E091E0FE010AE010E0FA93EA939A938A93D8
:140168000E94730187E884BB8FEF8ABB81E0809364002224DE
:14017C00209265002BBA25BA85E085BB67C0BDDF602F7727FF
:140190006130E0E07E0719F44F5F5F4F11C06F3FEFEF7E073A
:1401A40041F44030450711F44FE057E24150504005C0603073
:1401B800670711F44427552786E085BB28EE33E08A010E94DD
:1401CC003301CE01F801E80FF91F208020942BBA87E085BB34
:1401E00028EE33E08A010E942F0124E630E00E943301CE01C6
:1401F400F801E80FF91F208020942BBA81E085BB28EE33E0EC
:140208008A010E942F0124E630E00E942F012AE030E00E94DD
:14021C003301CE01F801E80FF91F208020942BBA82E085BBE8
:1402300028EE33E08A010E942F0124E630E00E942F012AE03E
:1402440030E00E942F01CE01F801E80FF91F208020942BBAB4
:1402580098CF2A9608956894DA92D12E04C0E894DA92D12EBC
:14026C00D32617FF04C0109500950F5F1F4F37FF04C03095D6
:1402800020952F5F3F4F0E945001D7FE04C0109500950F5F65
:140294001F4FD9900895689401C0E894EA92FA928A93EE2472
:1402A800FF2480E1000F111FEE1CFF1CE216F30618F0E21A65
:1402BC00F30A03958A95A1F716F40E2D1F2D8991F990E99035
:1402D00008957A936A935A934A930895499159916991799144
:1402E4000895AA93BA93EA93FA930A92AF81B885ED81FE81DF
:1402F8000030010729F001900D9201501040F8CF0990F991E6
:0A030C00E991B991A9912496089592
:00000001FF
