:040000000C94460016
:14008C00CFEFD0E1CDBFDEBFCE51D0400AEA08830024E0E036
:1400A000F1E011E0E030F10711F00192FBCF0083ECE8F0E0FD
:1400B400A0E0B1E010E000E00BBFEC38F10721F0C89531963C
:1400C8000D92F9CF0E947E00FFCF0E949B00442755270BC0E0
:1400DC006627772700006F5F7F4F6A3CE3E07E07CCF34F5FEE
:1400F0005F4F4017510794F30C94A0008FEF84BB18C04427D8
:1401040007C0842F8F5F85BB042F1127E0DF43954436B8F318
:1401180043E6662708C084E6861B85BB042F1127D4DF4A950D
:14012C0063956436B0F3E7CF08957A936A935A934A930895C6
:0A0140004991599169917991089550
:00000001FF
