:040000000C946000FC
:14008C00000000181800000000003C24243C0000007E42426E
:1400A00042427E00FF818181818181FF010204081020408047
:0B00B400051A600600070001000200B2
:1400C000CFEFD0E1CDBFDEBFCE51D0400AEA08830024E3E3FC
:1400D400F1E011E0E333F10711F00192FBCF0083ECE8F0E0C3
:1400E800A0E0B1E010E000E00BBFEF3BF10721F0C895319602
:1400FC000D92F9CF0E94CD00FFCF0E942C02442755270BC0CA
:140110006627772700006F5F7F4F6A3CE3E07E07CCF34F5FB9
:140124005F4F4017510794F30C943102002722242ABA80E857
:1401380082BB29B322BA8FEF8ABB81E080936400209265000C
:14014C0024FD01C001E025FD01C002E026FD01C003E027FD2C
:1401600001C004E020FD01C005E021FD01C001E022FD01C083
:1401740001E023FD01C001E008950E94270259016801C5BA2A
:140188001501209430942BBA04E610E0B8DF0C941C02E39747
:14019C0080E091E0FE0100E210E0FA93EA939A938A930E94B7
:1401B0003C0280E291E0FE01B09608E010E0FA93EA939A93D6
:1401C4008A930E943C0288E291E0FE01B89603E010E0FA93A2
:1401D800EA939A938A930E943C028BE291E0FE01BB9608E056
:1401EC0010E0FA93EA939A938A930E943C028FEF8ABB87E8A9
:1402000084BB22242BBA25BA85E085BB84E085BB86E085BBB2
:1402140087E085BB81E085BB82E085BB81E08093640080E8AC
:1402280081BBFCC081DF602F002309F4F7C0613089F484E092
:14023C0085BBAA2409C001E01A2D0E9436020BBB04E610E035
:140250005ADFA3948A2D8830A0F3E4C06230D9F4AA2407C090
:140264008A2D8F5F85BB0A2D11274BDFA3948A2D8436B0F3BD
:1402780083E6A82E442708C084E6841B85BB0A2D11273DDF2C
:14028C00AA9443954436B0F3C7C0633009F04BC084E085BB69
:1402A000AA240BC001E01A2D0E9436022BB2200E2BBA04E6D5
:1402B40010E027DFA3948A2D883090F3AA240BC00FEF1A2D39
:1402C8000E9436022BB2200E2BBA04E610E017DFA3948A2D9A
:1402DC00883090F3AA240FC02A2D332700E810E00E941502F4
:1402F0002BB23324200E311E2BBA04E610E003DFA3948A2DBA
:14030400883070F3AA240FC02A2D332700E81FEF0E941502CD
:140318002BB23324200E311E2BBA04E610E0EFDEA3948A2DA6
:14032C00883070F379C0643009F042C044271CC0AA2414C0F1
:14034000CE018896EA2DFF27E80FF91F20813327CE018B9685
:14035400E42FFF27EE0FFF1FE80FF91F008111810CDFA394FD
:140368008A2D833048F38FEF8BBB4395443010F343E01DC0C9
:14037C0082E0A82E14C0CE018896EA2DFF27E80FF91F208187
:140390003327CE018B96E42FFF27EE0FFF1FE80FF91F00812B
:1403A4001181EBDEAA948A2D803048F78FEF8BBB4A954030F3
:1403B80008F734C0653009F031C044272DC0662728C0AA2424
:1403CC0022C085E085BBCE01242E3324220C331C220C331C24
:1403E000220C331C280E391EEA2DFF27E20DF31D20802BBA3E
:1403F400222425BACE018096EA2DFF27E80FF91F208020944B
:140408002BBA02E010E07BDEA3948A2D8830D8F263956530D3
:14041C00B0F24395443088F203CFE3960895222321F015957C
:1404300007952A95FACF0895A990B990C990D99008957A9309
:140444006A935A934A93FA92EA92DA92CA92BA92AA920895E8
:140458007A936A935A934A93089549915991699179910895BA
:14046C00112319F0000F1A95FBCF0895AA93BA93EA93FA9386
:140480000A92AF81B885ED81FE810030010729F001900D92F1
:1404940001501040F8CF0990F991E991B991A9912496089574
:00000001FF
