:040000000C945E00FE
:14008C0077603E7A695B5F707F7B10204002040100000000CD
:1400A0000000007A00007A7A007A7A3E7A7A3E607A3E600002
:1400B4003E60000060000000CFEFD0E1CDBFDEBFCE51D04073
:1400C8000AEA08830024E0E3F1E011E0E033F10711F001925D
:1400DC00FBCF0083ECE8F0E0A0E0B1E010E000E00BBFEC3B4D
:1400F000F10721F0C89531960D92F9CF0E949600FFCF0E94C0
:14010400FE00442755270BC06627772700006F5F7F4F6A3CCA
:14011800E3E07E07CCF34F5F5F4F4017510794F30C94030196
:14012C00E09780E091E0FE010AE010E0FA93EA939A938A934A
:140140000E9408018AE091E0FE013A9606E010E0FA93EA9376
:140154009A938A930E94080180E191E0FE01709600E210E0F9
:14016800FA93EA939A938A930E9408018FEF8ABB87E884BB13
:14017C0081E08093640039C044270FC081E08BBB242E332414
:140190000FEF10E002191309B4DF88E08BBB042F1127AFDFFC
:1401A40043954F3F78F344270FC088E08BBB242E33240FEFE7
:1401B80010E002191309A1DF82E08BBB042F11279CDF439526
:1401CC004F3F78F344270FC082E08BBB242E33240FEF10E0AD
:1401E000021913098EDF81E08BBB042F112789DF43954F3F87
:1401F40078F3C6CFE09608957A936A935A934A930895499199
:140208005991699179910895AA93BA93EA93FA930A92AF81F7
:14021C00B885ED81FE810030010729F001900D920150104082
:10023000F8CF0990F991E991B991A991249608957F
:00000001FF
